{
  "_format": "hh-sol-artifact-1",
  "contractName": "CeloAvatars",
  "sourceName": "contracts/CeloAvatars.sol",
  "abi": [
    {
      "inputs": [
        {
          "internalType": "uint256",
          "name": "_mintFee",
          "type": "uint256"
        },
        {
          "internalType": "address",
          "name": "_mintFeeToken",
          "type": "address"
        }
      ],
      "stateMutability": "nonpayable",
      "type": "constructor"
    },
    {
      "anonymous": false,
      "inputs": [
        {
          "indexed": true,
          "internalType": "address",
          "name": "owner",
          "type": "address"
        },
        {
          "indexed": true,
          "internalType": "address",
          "name": "approved",
          "type": "address"
        },
        {
          "indexed": true,
          "internalType": "uint256",
          "name": "tokenId",
          "type": "uint256"
        }
      ],
      "name": "Approval",
      "type": "event"
    },
    {
      "anonymous": false,
      "inputs": [
        {
          "indexed": true,
          "internalType": "address",
          "name": "owner",
          "type": "address"
        },
        {
          "indexed": true,
          "internalType": "address",
          "name": "operator",
          "type": "address"
        },
        {
          "indexed": false,
          "internalType": "bool",
          "name": "approved",
          "type": "bool"
        }
      ],
      "name": "ApprovalForAll",
      "type": "event"
    },
    {
      "anonymous": false,
      "inputs": [
        {
          "indexed": true,
          "internalType": "address",
          "name": "previousOwner",
          "type": "address"
        },
        {
          "indexed": true,
          "internalType": "address",
          "name": "newOwner",
          "type": "address"
        }
      ],
      "name": "OwnershipTransferred",
      "type": "event"
    },
    {
      "anonymous": false,
      "inputs": [
        {
          "indexed": true,
          "internalType": "address",
          "name": "from",
          "type": "address"
        },
        {
          "indexed": true,
          "internalType": "address",
          "name": "to",
          "type": "address"
        },
        {
          "indexed": true,
          "internalType": "uint256",
          "name": "tokenId",
          "type": "uint256"
        }
      ],
      "name": "Transfer",
      "type": "event"
    },
    {
      "inputs": [
        {
          "internalType": "address",
          "name": "to",
          "type": "address"
        },
        {
          "internalType": "uint256",
          "name": "tokenId",
          "type": "uint256"
        }
      ],
      "name": "approve",
      "outputs": [],
      "stateMutability": "nonpayable",
      "type": "function"
    },
    {
      "inputs": [
        {
          "internalType": "address",
          "name": "owner",
          "type": "address"
        }
      ],
      "name": "balanceOf",
      "outputs": [
        {
          "internalType": "uint256",
          "name": "",
          "type": "uint256"
        }
      ],
      "stateMutability": "view",
      "type": "function"
    },
    {
      "inputs": [
        {
          "internalType": "uint256",
          "name": "tokenId",
          "type": "uint256"
        }
      ],
      "name": "getApproved",
      "outputs": [
        {
          "internalType": "address",
          "name": "",
          "type": "address"
        }
      ],
      "stateMutability": "view",
      "type": "function"
    },
    {
      "inputs": [],
      "name": "getMintingFee",
      "outputs": [
        {
          "internalType": "uint256",
          "name": "",
          "type": "uint256"
        }
      ],
      "stateMutability": "view",
      "type": "function"
    },
    {
      "inputs": [
        {
          "internalType": "address",
          "name": "_wallet",
          "type": "address"
        }
      ],
      "name": "getTokenIdsByOwner",
      "outputs": [
        {
          "internalType": "uint256[]",
          "name": "",
          "type": "uint256[]"
        }
      ],
      "stateMutability": "view",
      "type": "function"
    },
    {
      "inputs": [
        {
          "internalType": "address",
          "name": "owner",
          "type": "address"
        },
        {
          "internalType": "address",
          "name": "operator",
          "type": "address"
        }
      ],
      "name": "isApprovedForAll",
      "outputs": [
        {
          "internalType": "bool",
          "name": "",
          "type": "bool"
        }
      ],
      "stateMutability": "view",
      "type": "function"
    },
    {
      "inputs": [],
      "name": "name",
      "outputs": [
        {
          "internalType": "string",
          "name": "",
          "type": "string"
        }
      ],
      "stateMutability": "view",
      "type": "function"
    },
    {
      "inputs": [],
      "name": "owner",
      "outputs": [
        {
          "internalType": "address",
          "name": "",
          "type": "address"
        }
      ],
      "stateMutability": "view",
      "type": "function"
    },
    {
      "inputs": [
        {
          "internalType": "uint256",
          "name": "tokenId",
          "type": "uint256"
        }
      ],
      "name": "ownerOf",
      "outputs": [
        {
          "internalType": "address",
          "name": "",
          "type": "address"
        }
      ],
      "stateMutability": "view",
      "type": "function"
    },
    {
      "inputs": [],
      "name": "renounceOwnership",
      "outputs": [],
      "stateMutability": "nonpayable",
      "type": "function"
    },
    {
      "inputs": [
        {
          "internalType": "address",
          "name": "to",
          "type": "address"
        },
        {
          "internalType": "string",
          "name": "uri",
          "type": "string"
        }
      ],
      "name": "safeMint",
      "outputs": [],
      "stateMutability": "nonpayable",
      "type": "function"
    },
    {
      "inputs": [
        {
          "internalType": "address",
          "name": "from",
          "type": "address"
        },
        {
          "internalType": "address",
          "name": "to",
          "type": "address"
        },
        {
          "internalType": "uint256",
          "name": "tokenId",
          "type": "uint256"
        }
      ],
      "name": "safeTransferFrom",
      "outputs": [],
      "stateMutability": "nonpayable",
      "type": "function"
    },
    {
      "inputs": [
        {
          "internalType": "address",
          "name": "from",
          "type": "address"
        },
        {
          "internalType": "address",
          "name": "to",
          "type": "address"
        },
        {
          "internalType": "uint256",
          "name": "tokenId",
          "type": "uint256"
        },
        {
          "internalType": "bytes",
          "name": "data",
          "type": "bytes"
        }
      ],
      "name": "safeTransferFrom",
      "outputs": [],
      "stateMutability": "nonpayable",
      "type": "function"
    },
    {
      "inputs": [
        {
          "internalType": "address",
          "name": "operator",
          "type": "address"
        },
        {
          "internalType": "bool",
          "name": "approved",
          "type": "bool"
        }
      ],
      "name": "setApprovalForAll",
      "outputs": [],
      "stateMutability": "nonpayable",
      "type": "function"
    },
    {
      "inputs": [
        {
          "internalType": "bytes4",
          "name": "interfaceId",
          "type": "bytes4"
        }
      ],
      "name": "supportsInterface",
      "outputs": [
        {
          "internalType": "bool",
          "name": "",
          "type": "bool"
        }
      ],
      "stateMutability": "view",
      "type": "function"
    },
    {
      "inputs": [],
      "name": "symbol",
      "outputs": [
        {
          "internalType": "string",
          "name": "",
          "type": "string"
        }
      ],
      "stateMutability": "view",
      "type": "function"
    },
    {
      "inputs": [
        {
          "internalType": "uint256",
          "name": "index",
          "type": "uint256"
        }
      ],
      "name": "tokenByIndex",
      "outputs": [
        {
          "internalType": "uint256",
          "name": "",
          "type": "uint256"
        }
      ],
      "stateMutability": "view",
      "type": "function"
    },
    {
      "inputs": [
        {
          "internalType": "address",
          "name": "owner",
          "type": "address"
        },
        {
          "internalType": "uint256",
          "name": "index",
          "type": "uint256"
        }
      ],
      "name": "tokenOfOwnerByIndex",
      "outputs": [
        {
          "internalType": "uint256",
          "name": "",
          "type": "uint256"
        }
      ],
      "stateMutability": "view",
      "type": "function"
    },
    {
      "inputs": [
        {
          "internalType": "uint256",
          "name": "tokenId",
          "type": "uint256"
        }
      ],
      "name": "tokenURI",
      "outputs": [
        {
          "internalType": "string",
          "name": "",
          "type": "string"
        }
      ],
      "stateMutability": "view",
      "type": "function"
    },
    {
      "inputs": [],
      "name": "totalSupply",
      "outputs": [
        {
          "internalType": "uint256",
          "name": "",
          "type": "uint256"
        }
      ],
      "stateMutability": "view",
      "type": "function"
    },
    {
      "inputs": [
        {
          "internalType": "address",
          "name": "from",
          "type": "address"
        },
        {
          "internalType": "address",
          "name": "to",
          "type": "address"
        },
        {
          "internalType": "uint256",
          "name": "tokenId",
          "type": "uint256"
        }
      ],
      "name": "transferFrom",
      "outputs": [],
      "stateMutability": "nonpayable",
      "type": "function"
    },
    {
      "inputs": [
        {
          "internalType": "address",
          "name": "newOwner",
          "type": "address"
        }
      ],
      "name": "transferOwnership",
      "outputs": [],
      "stateMutability": "nonpayable",
      "type": "function"
    }
  ],
  "bytecode": "0x60806040523480156200001157600080fd5b5060405162003d6b38038062003d6b833981810160405281019062000037919062000308565b6040518060400160405280600b81526020017f43656c6f417661746172730000000000000000000000000000000000000000008152506040518060400160405280600481526020017f63415654000000000000000000000000000000000000000000000000000000008152508160009080519060200190620000bb9291906200022a565b508060019080519060200190620000d49291906200022a565b505050620000f7620000eb6200015c60201b60201c565b6200016460201b60201c565b670de0b6b3a7640000826200010d919062000349565b600d8190555080600e60006101000a81548173ffffffffffffffffffffffffffffffffffffffff021916908373ffffffffffffffffffffffffffffffffffffffff1602179055505050620004b0565b600033905090565b6000600b60009054906101000a900473ffffffffffffffffffffffffffffffffffffffff16905081600b60006101000a81548173ffffffffffffffffffffffffffffffffffffffff021916908373ffffffffffffffffffffffffffffffffffffffff1602179055508173ffffffffffffffffffffffffffffffffffffffff168173ffffffffffffffffffffffffffffffffffffffff167f8be0079c531659141344cd1fd0a4f28419497f9722a3daafe3b4186f6b6457e060405160405180910390a35050565b8280546200023890620003e8565b90600052602060002090601f0160209004810192826200025c5760008555620002a8565b82601f106200027757805160ff1916838001178555620002a8565b82800160010185558215620002a8579182015b82811115620002a75782518255916020019190600101906200028a565b5b509050620002b79190620002bb565b5090565b5b80821115620002d6576000816000905550600101620002bc565b5090565b600081519050620002eb816200047c565b92915050565b600081519050620003028162000496565b92915050565b600080604083850312156200031c57600080fd5b60006200032c85828601620002f1565b92505060206200033f85828601620002da565b9150509250929050565b60006200035682620003de565b91506200036383620003de565b9250817fffffffffffffffffffffffffffffffffffffffffffffffffffffffffffffffff04831182151516156200039f576200039e6200041e565b5b828202905092915050565b6000620003b782620003be565b9050919050565b600073ffffffffffffffffffffffffffffffffffffffff82169050919050565b6000819050919050565b600060028204905060018216806200040157607f821691505b602082108114156200041857620004176200044d565b5b50919050565b7f4e487b7100000000000000000000000000000000000000000000000000000000600052601160045260246000fd5b7f4e487b7100000000000000000000000000000000000000000000000000000000600052602260045260246000fd5b6200048781620003aa565b81146200049357600080fd5b50565b620004a181620003de565b8114620004ad57600080fd5b50565b6138ab80620004c06000396000f3fe608060405234801561001057600080fd5b50600436106101425760003560e01c806370a08231116100b8578063b59d88a91161007c578063b59d88a914610389578063b88d4fde146103a7578063c87b56dd146103c3578063d204c45e146103f3578063e985e9c51461040f578063f2fde38b1461043f57610142565b806370a08231146102f7578063715018a6146103275780638da5cb5b1461033157806395d89b411461034f578063a22cb4651461036d57610142565b806323b872dd1161010a57806323b872dd146101ff5780632f745c591461021b57806342842e0e1461024b5780634f6ccce7146102675780636352211e146102975780636970bb0a146102c757610142565b806301ffc9a71461014757806306fdde0314610177578063081812fc14610195578063095ea7b3146101c557806318160ddd146101e1575b600080fd5b610161600480360381019061015c9190612821565b61045b565b60405161016e9190612d28565b60405180910390f35b61017f61046d565b60405161018c9190612d43565b60405180910390f35b6101af60048036038101906101aa9190612873565b6104ff565b6040516101bc9190612c68565b60405180910390f35b6101df60048036038101906101da91906127bc565b610545565b005b6101e961065d565b6040516101f69190612f85565b60405180910390f35b61021960048036038101906102149190612662565b61066a565b005b610235600480360381019061023091906127bc565b6106ca565b6040516102429190612f85565b60405180910390f35b61026560048036038101906102609190612662565b61076f565b005b610281600480360381019061027c9190612873565b61078f565b60405161028e9190612f85565b60405180910390f35b6102b160048036038101906102ac9190612873565b610826565b6040516102be9190612c68565b60405180910390f35b6102e160048036038101906102dc91906125fd565b6108d8565b6040516102ee9190612d06565b60405180910390f35b610311600480360381019061030c91906125fd565b61096f565b60405161031e9190612f85565b60405180910390f35b61032f610a27565b005b610339610a3b565b6040516103469190612c68565b60405180910390f35b610357610a65565b6040516103649190612d43565b60405180910390f35b6103876004803603810190610382919061272c565b610af7565b005b610391610b0d565b60405161039e9190612f85565b60405180910390f35b6103c160048036038101906103bc91906126b1565b610b17565b005b6103dd60048036038101906103d89190612873565b610b79565b6040516103ea9190612d43565b60405180910390f35b61040d60048036038101906104089190612768565b610b8b565b005b61042960048036038101906104249190612626565b610d23565b6040516104369190612d28565b60405180910390f35b610459600480360381019061045491906125fd565b610db7565b005b600061046682610e3b565b9050919050565b60606000805461047c90613214565b80601f01602080910402602001604051908101604052809291908181526020018280546104a890613214565b80156104f55780601f106104ca576101008083540402835291602001916104f5565b820191906000526020600020905b8154815290600101906020018083116104d857829003601f168201915b5050505050905090565b600061050a82610eb5565b6004600083815260200190815260200160002060009054906101000a900473ffffffffffffffffffffffffffffffffffffffff169050919050565b600061055082610826565b90508073ffffffffffffffffffffffffffffffffffffffff168373ffffffffffffffffffffffffffffffffffffffff1614156105c1576040517f08c379a00000000000000000000000000000000000000000000000000000000081526004016105b890612f05565b60405180910390fd5b8073ffffffffffffffffffffffffffffffffffffffff166105e0610f00565b73ffffffffffffffffffffffffffffffffffffffff16148061060f575061060e81610609610f00565b610d23565b5b61064e576040517f08c379a000000000000000000000000000000000000000000000000000000000815260040161064590612e85565b60405180910390fd5b6106588383610f08565b505050565b6000600880549050905090565b61067b610675610f00565b82610fc1565b6106ba576040517f08c379a00000000000000000000000000000000000000000000000000000000081526004016106b190612f65565b60405180910390fd5b6106c5838383611056565b505050565b60006106d58361096f565b8210610716576040517f08c379a000000000000000000000000000000000000000000000000000000000815260040161070d90612d65565b60405180910390fd5b600660008473ffffffffffffffffffffffffffffffffffffffff1673ffffffffffffffffffffffffffffffffffffffff168152602001908152602001600020600083815260200190815260200160002054905092915050565b61078a83838360405180602001604052806000815250610b17565b505050565b600061079961065d565b82106107da576040517f08c379a00000000000000000000000000000000000000000000000000000000081526004016107d190612f45565b60405180910390fd5b60088281548110610814577f4e487b7100000000000000000000000000000000000000000000000000000000600052603260045260246000fd5b90600052602060002001549050919050565b6000806002600084815260200190815260200160002060009054906101000a900473ffffffffffffffffffffffffffffffffffffffff169050600073ffffffffffffffffffffffffffffffffffffffff168173ffffffffffffffffffffffffffffffffffffffff1614156108cf576040517f08c379a00000000000000000000000000000000000000000000000000000000081526004016108c690612ee5565b60405180910390fd5b80915050919050565b6060600f60008373ffffffffffffffffffffffffffffffffffffffff1673ffffffffffffffffffffffffffffffffffffffff16815260200190815260200160002080548060200260200160405190810160405280929190818152602001828054801561096357602002820191906000526020600020905b81548152602001906001019080831161094f575b50505050509050919050565b60008073ffffffffffffffffffffffffffffffffffffffff168273ffffffffffffffffffffffffffffffffffffffff1614156109e0576040517f08c379a00000000000000000000000000000000000000000000000000000000081526004016109d790612e45565b60405180910390fd5b600360008373ffffffffffffffffffffffffffffffffffffffff1673ffffffffffffffffffffffffffffffffffffffff168152602001908152602001600020549050919050565b610a2f6112bd565b610a39600061133b565b565b6000600b60009054906101000a900473ffffffffffffffffffffffffffffffffffffffff16905090565b606060018054610a7490613214565b80601f0160208091040260200160405190810160405280929190818152602001828054610aa090613214565b8015610aed5780601f10610ac257610100808354040283529160200191610aed565b820191906000526020600020905b815481529060010190602001808311610ad057829003601f168201915b5050505050905090565b610b09610b02610f00565b8383611401565b5050565b6000600d54905090565b610b28610b22610f00565b83610fc1565b610b67576040517f08c379a0000000000000000000000000000000000000000000000000000000008152600401610b5e90612f65565b60405180910390fd5b610b738484848461156e565b50505050565b6060610b84826115ca565b9050919050565b610b936112bd565b600e60009054906101000a900473ffffffffffffffffffffffffffffffffffffffff1673ffffffffffffffffffffffffffffffffffffffff166323b872dd33610bda610a3b565b600d546040518463ffffffff1660e01b8152600401610bfb93929190612c83565b602060405180830381600087803b158015610c1557600080fd5b505af1158015610c29573d6000803e3d6000fd5b505050506040513d601f19601f82011682018060405250810190610c4d91906127f8565b610c8c576040517f08c379a0000000000000000000000000000000000000000000000000000000008152600401610c8390612f25565b60405180910390fd5b6000610c98600c6116dd565b9050610ca4600c6116eb565b610cae8382611701565b610cb8818361171f565b600f60008473ffffffffffffffffffffffffffffffffffffffff1673ffffffffffffffffffffffffffffffffffffffff168152602001908152602001600020819080600181540180825580915050600190039060005260206000200160009091909190915055505050565b6000600560008473ffffffffffffffffffffffffffffffffffffffff1673ffffffffffffffffffffffffffffffffffffffff16815260200190815260200160002060008373ffffffffffffffffffffffffffffffffffffffff1673ffffffffffffffffffffffffffffffffffffffff16815260200190815260200160002060009054906101000a900460ff16905092915050565b610dbf6112bd565b600073ffffffffffffffffffffffffffffffffffffffff168173ffffffffffffffffffffffffffffffffffffffff161415610e2f576040517f08c379a0000000000000000000000000000000000000000000000000000000008152600401610e2690612da5565b60405180910390fd5b610e388161133b565b50565b60007f780e9d63000000000000000000000000000000000000000000000000000000007bffffffffffffffffffffffffffffffffffffffffffffffffffffffff1916827bffffffffffffffffffffffffffffffffffffffffffffffffffffffff19161480610eae5750610ead82611793565b5b9050919050565b610ebe81611875565b610efd576040517f08c379a0000000000000000000000000000000000000000000000000000000008152600401610ef490612ee5565b60405180910390fd5b50565b600033905090565b816004600083815260200190815260200160002060006101000a81548173ffffffffffffffffffffffffffffffffffffffff021916908373ffffffffffffffffffffffffffffffffffffffff160217905550808273ffffffffffffffffffffffffffffffffffffffff16610f7b83610826565b73ffffffffffffffffffffffffffffffffffffffff167f8c5be1e5ebec7d5bd14f71427d1e84f3dd0314c0f7b2291e5b200ac8c7c3b92560405160405180910390a45050565b600080610fcd83610826565b90508073ffffffffffffffffffffffffffffffffffffffff168473ffffffffffffffffffffffffffffffffffffffff16148061100f575061100e8185610d23565b5b8061104d57508373ffffffffffffffffffffffffffffffffffffffff16611035846104ff565b73ffffffffffffffffffffffffffffffffffffffff16145b91505092915050565b8273ffffffffffffffffffffffffffffffffffffffff1661107682610826565b73ffffffffffffffffffffffffffffffffffffffff16146110cc576040517f08c379a00000000000000000000000000000000000000000000000000000000081526004016110c390612dc5565b60405180910390fd5b600073ffffffffffffffffffffffffffffffffffffffff168273ffffffffffffffffffffffffffffffffffffffff16141561113c576040517f08c379a000000000000000000000000000000000000000000000000000000000815260040161113390612e05565b60405180910390fd5b6111478383836118e1565b611152600082610f08565b6001600360008573ffffffffffffffffffffffffffffffffffffffff1673ffffffffffffffffffffffffffffffffffffffff16815260200190815260200160002060008282546111a2919061312a565b925050819055506001600360008473ffffffffffffffffffffffffffffffffffffffff1673ffffffffffffffffffffffffffffffffffffffff16815260200190815260200160002060008282546111f991906130a3565b92505081905550816002600083815260200190815260200160002060006101000a81548173ffffffffffffffffffffffffffffffffffffffff021916908373ffffffffffffffffffffffffffffffffffffffff160217905550808273ffffffffffffffffffffffffffffffffffffffff168473ffffffffffffffffffffffffffffffffffffffff167fddf252ad1be2c89b69c2b068fc378daa952ba7f163c4a11628f55a4df523b3ef60405160405180910390a46112b88383836118f1565b505050565b6112c5610f00565b73ffffffffffffffffffffffffffffffffffffffff166112e3610a3b565b73ffffffffffffffffffffffffffffffffffffffff1614611339576040517f08c379a000000000000000000000000000000000000000000000000000000000815260040161133090612ec5565b60405180910390fd5b565b6000600b60009054906101000a900473ffffffffffffffffffffffffffffffffffffffff16905081600b60006101000a81548173ffffffffffffffffffffffffffffffffffffffff021916908373ffffffffffffffffffffffffffffffffffffffff1602179055508173ffffffffffffffffffffffffffffffffffffffff168173ffffffffffffffffffffffffffffffffffffffff167f8be0079c531659141344cd1fd0a4f28419497f9722a3daafe3b4186f6b6457e060405160405180910390a35050565b8173ffffffffffffffffffffffffffffffffffffffff168373ffffffffffffffffffffffffffffffffffffffff161415611470576040517f08c379a000000000000000000000000000000000000000000000000000000000815260040161146790612e25565b60405180910390fd5b80600560008573ffffffffffffffffffffffffffffffffffffffff1673ffffffffffffffffffffffffffffffffffffffff16815260200190815260200160002060008473ffffffffffffffffffffffffffffffffffffffff1673ffffffffffffffffffffffffffffffffffffffff16815260200190815260200160002060006101000a81548160ff0219169083151502179055508173ffffffffffffffffffffffffffffffffffffffff168373ffffffffffffffffffffffffffffffffffffffff167f17307eab39ab6107e8899845ad3d59bd9653f200f220920489ca2b5937696c31836040516115619190612d28565b60405180910390a3505050565b611579848484611056565b611585848484846118f6565b6115c4576040517f08c379a00000000000000000000000000000000000000000000000000000000081526004016115bb90612d85565b60405180910390fd5b50505050565b60606115d582610eb5565b6000600a600084815260200190815260200160002080546115f590613214565b80601f016020809104026020016040519081016040528092919081815260200182805461162190613214565b801561166e5780601f106116435761010080835404028352916020019161166e565b820191906000526020600020905b81548152906001019060200180831161165157829003601f168201915b50505050509050600061167f611a8d565b90506000815114156116955781925050506116d8565b6000825111156116ca5780826040516020016116b2929190612c44565b604051602081830303815290604052925050506116d8565b6116d384611aa4565b925050505b919050565b600081600001549050919050565b6001816000016000828254019250508190555050565b61171b828260405180602001604052806000815250611b0c565b5050565b61172882611875565b611767576040517f08c379a000000000000000000000000000000000000000000000000000000000815260040161175e90612e65565b60405180910390fd5b80600a6000848152602001908152602001600020908051906020019061178e92919061240c565b505050565b60007f80ac58cd000000000000000000000000000000000000000000000000000000007bffffffffffffffffffffffffffffffffffffffffffffffffffffffff1916827bffffffffffffffffffffffffffffffffffffffffffffffffffffffff1916148061185e57507f5b5e139f000000000000000000000000000000000000000000000000000000007bffffffffffffffffffffffffffffffffffffffffffffffffffffffff1916827bffffffffffffffffffffffffffffffffffffffffffffffffffffffff1916145b8061186e575061186d82611b67565b5b9050919050565b60008073ffffffffffffffffffffffffffffffffffffffff166002600084815260200190815260200160002060009054906101000a900473ffffffffffffffffffffffffffffffffffffffff1673ffffffffffffffffffffffffffffffffffffffff1614159050919050565b6118ec838383611bd1565b505050565b505050565b60006119178473ffffffffffffffffffffffffffffffffffffffff16611ce5565b15611a80578373ffffffffffffffffffffffffffffffffffffffff1663150b7a02611940610f00565b8786866040518563ffffffff1660e01b81526004016119629493929190612cba565b602060405180830381600087803b15801561197c57600080fd5b505af19250505080156119ad57506040513d601f19601f820116820180604052508101906119aa919061284a565b60015b611a30573d80600081146119dd576040519150601f19603f3d011682016040523d82523d6000602084013e6119e2565b606091505b50600081511415611a28576040517f08c379a0000000000000000000000000000000000000000000000000000000008152600401611a1f90612d85565b60405180910390fd5b805181602001fd5b63150b7a0260e01b7bffffffffffffffffffffffffffffffffffffffffffffffffffffffff1916817bffffffffffffffffffffffffffffffffffffffffffffffffffffffff191614915050611a85565b600190505b949350505050565b606060405180602001604052806000815250905090565b6060611aaf82610eb5565b6000611ab9611a8d565b90506000815111611ad95760405180602001604052806000815250611b04565b80611ae384611d08565b604051602001611af4929190612c44565b6040516020818303038152906040525b915050919050565b611b168383611eb5565b611b2360008484846118f6565b611b62576040517f08c379a0000000000000000000000000000000000000000000000000000000008152600401611b5990612d85565b60405180910390fd5b505050565b60007f01ffc9a7000000000000000000000000000000000000000000000000000000007bffffffffffffffffffffffffffffffffffffffffffffffffffffffff1916827bffffffffffffffffffffffffffffffffffffffffffffffffffffffff1916149050919050565b611bdc83838361208f565b600073ffffffffffffffffffffffffffffffffffffffff168373ffffffffffffffffffffffffffffffffffffffff161415611c1f57611c1a81612094565b611c5e565b8173ffffffffffffffffffffffffffffffffffffffff168373ffffffffffffffffffffffffffffffffffffffff1614611c5d57611c5c83826120dd565b5b5b600073ffffffffffffffffffffffffffffffffffffffff168273ffffffffffffffffffffffffffffffffffffffff161415611ca157611c9c8161224a565b611ce0565b8273ffffffffffffffffffffffffffffffffffffffff168273ffffffffffffffffffffffffffffffffffffffff1614611cdf57611cde828261238d565b5b5b505050565b6000808273ffffffffffffffffffffffffffffffffffffffff163b119050919050565b60606000821415611d50576040518060400160405280600181526020017f30000000000000000000000000000000000000000000000000000000000000008152509050611eb0565b600082905060005b60008214611d82578080611d6b90613277565b915050600a82611d7b91906130f9565b9150611d58565b60008167ffffffffffffffff811115611dc4577f4e487b7100000000000000000000000000000000000000000000000000000000600052604160045260246000fd5b6040519080825280601f01601f191660200182016040528015611df65781602001600182028036833780820191505090505b5090505b60008514611ea957600182611e0f919061312a565b9150600a85611e1e91906132c0565b6030611e2a91906130a3565b60f81b818381518110611e66577f4e487b7100000000000000000000000000000000000000000000000000000000600052603260045260246000fd5b60200101907effffffffffffffffffffffffffffffffffffffffffffffffffffffffffffff1916908160001a905350600a85611ea291906130f9565b9450611dfa565b8093505050505b919050565b600073ffffffffffffffffffffffffffffffffffffffff168273ffffffffffffffffffffffffffffffffffffffff161415611f25576040517f08c379a0000000000000000000000000000000000000000000000000000000008152600401611f1c90612ea5565b60405180910390fd5b611f2e81611875565b15611f6e576040517f08c379a0000000000000000000000000000000000000000000000000000000008152600401611f6590612de5565b60405180910390fd5b611f7a600083836118e1565b6001600360008473ffffffffffffffffffffffffffffffffffffffff1673ffffffffffffffffffffffffffffffffffffffff1681526020019081526020016000206000828254611fca91906130a3565b92505081905550816002600083815260200190815260200160002060006101000a81548173ffffffffffffffffffffffffffffffffffffffff021916908373ffffffffffffffffffffffffffffffffffffffff160217905550808273ffffffffffffffffffffffffffffffffffffffff16600073ffffffffffffffffffffffffffffffffffffffff167fddf252ad1be2c89b69c2b068fc378daa952ba7f163c4a11628f55a4df523b3ef60405160405180910390a461208b600083836118f1565b5050565b505050565b6008805490506009600083815260200190815260200160002081905550600881908060018154018082558091505060019003906000526020600020016000909190919091505550565b600060016120ea8461096f565b6120f4919061312a565b90506000600760008481526020019081526020016000205490508181146121d9576000600660008673ffffffffffffffffffffffffffffffffffffffff1673ffffffffffffffffffffffffffffffffffffffff168152602001908152602001600020600084815260200190815260200160002054905080600660008773ffffffffffffffffffffffffffffffffffffffff1673ffffffffffffffffffffffffffffffffffffffff168152602001908152602001600020600084815260200190815260200160002081905550816007600083815260200190815260200160002081905550505b6007600084815260200190815260200160002060009055600660008573ffffffffffffffffffffffffffffffffffffffff1673ffffffffffffffffffffffffffffffffffffffff16815260200190815260200160002060008381526020019081526020016000206000905550505050565b6000600160088054905061225e919061312a565b90506000600960008481526020019081526020016000205490506000600883815481106122b4577f4e487b7100000000000000000000000000000000000000000000000000000000600052603260045260246000fd5b9060005260206000200154905080600883815481106122fc577f4e487b7100000000000000000000000000000000000000000000000000000000600052603260045260246000fd5b906000526020600020018190555081600960008381526020019081526020016000208190555060096000858152602001908152602001600020600090556008805480612371577f4e487b7100000000000000000000000000000000000000000000000000000000600052603160045260246000fd5b6001900381819060005260206000200160009055905550505050565b60006123988361096f565b905081600660008573ffffffffffffffffffffffffffffffffffffffff1673ffffffffffffffffffffffffffffffffffffffff168152602001908152602001600020600083815260200190815260200160002081905550806007600084815260200190815260200160002081905550505050565b82805461241890613214565b90600052602060002090601f01602090048101928261243a5760008555612481565b82601f1061245357805160ff1916838001178555612481565b82800160010185558215612481579182015b82811115612480578251825591602001919060010190612465565b5b50905061248e9190612492565b5090565b5b808211156124ab576000816000905550600101612493565b5090565b60006124c26124bd84612fc5565b612fa0565b9050828152602081018484840111156124da57600080fd5b6124e58482856131d2565b509392505050565b60006125006124fb84612ff6565b612fa0565b90508281526020810184848401111561251857600080fd5b6125238482856131d2565b509392505050565b60008135905061253a81613819565b92915050565b60008135905061254f81613830565b92915050565b60008151905061256481613830565b92915050565b60008135905061257981613847565b92915050565b60008151905061258e81613847565b92915050565b600082601f8301126125a557600080fd5b81356125b58482602086016124af565b91505092915050565b600082601f8301126125cf57600080fd5b81356125df8482602086016124ed565b91505092915050565b6000813590506125f78161385e565b92915050565b60006020828403121561260f57600080fd5b600061261d8482850161252b565b91505092915050565b6000806040838503121561263957600080fd5b60006126478582860161252b565b92505060206126588582860161252b565b9150509250929050565b60008060006060848603121561267757600080fd5b60006126858682870161252b565b93505060206126968682870161252b565b92505060406126a7868287016125e8565b9150509250925092565b600080600080608085870312156126c757600080fd5b60006126d58782880161252b565b94505060206126e68782880161252b565b93505060406126f7878288016125e8565b925050606085013567ffffffffffffffff81111561271457600080fd5b61272087828801612594565b91505092959194509250565b6000806040838503121561273f57600080fd5b600061274d8582860161252b565b925050602061275e85828601612540565b9150509250929050565b6000806040838503121561277b57600080fd5b60006127898582860161252b565b925050602083013567ffffffffffffffff8111156127a657600080fd5b6127b2858286016125be565b9150509250929050565b600080604083850312156127cf57600080fd5b60006127dd8582860161252b565b92505060206127ee858286016125e8565b9150509250929050565b60006020828403121561280a57600080fd5b600061281884828501612555565b91505092915050565b60006020828403121561283357600080fd5b60006128418482850161256a565b91505092915050565b60006020828403121561285c57600080fd5b600061286a8482850161257f565b91505092915050565b60006020828403121561288557600080fd5b6000612893848285016125e8565b91505092915050565b60006128a88383612c26565b60208301905092915050565b6128bd8161315e565b82525050565b60006128ce82613037565b6128d88185613065565b93506128e383613027565b8060005b838110156129145781516128fb888261289c565b975061290683613058565b9250506001810190506128e7565b5085935050505092915050565b61292a81613170565b82525050565b600061293b82613042565b6129458185613076565b93506129558185602086016131e1565b61295e816133ad565b840191505092915050565b60006129748261304d565b61297e8185613087565b935061298e8185602086016131e1565b612997816133ad565b840191505092915050565b60006129ad8261304d565b6129b78185613098565b93506129c78185602086016131e1565b80840191505092915050565b60006129e0602b83613087565b91506129eb826133be565b604082019050919050565b6000612a03603283613087565b9150612a0e8261340d565b604082019050919050565b6000612a26602683613087565b9150612a318261345c565b604082019050919050565b6000612a49602583613087565b9150612a54826134ab565b604082019050919050565b6000612a6c601c83613087565b9150612a77826134fa565b602082019050919050565b6000612a8f602483613087565b9150612a9a82613523565b604082019050919050565b6000612ab2601983613087565b9150612abd82613572565b602082019050919050565b6000612ad5602983613087565b9150612ae08261359b565b604082019050919050565b6000612af8602e83613087565b9150612b03826135ea565b604082019050919050565b6000612b1b603e83613087565b9150612b2682613639565b604082019050919050565b6000612b3e602083613087565b9150612b4982613688565b602082019050919050565b6000612b61602083613087565b9150612b6c826136b1565b602082019050919050565b6000612b84601883613087565b9150612b8f826136da565b602082019050919050565b6000612ba7602183613087565b9150612bb282613703565b604082019050919050565b6000612bca601083613087565b9150612bd582613752565b602082019050919050565b6000612bed602c83613087565b9150612bf88261377b565b604082019050919050565b6000612c10602e83613087565b9150612c1b826137ca565b604082019050919050565b612c2f816131c8565b82525050565b612c3e816131c8565b82525050565b6000612c5082856129a2565b9150612c5c82846129a2565b91508190509392505050565b6000602082019050612c7d60008301846128b4565b92915050565b6000606082019050612c9860008301866128b4565b612ca560208301856128b4565b612cb26040830184612c35565b949350505050565b6000608082019050612ccf60008301876128b4565b612cdc60208301866128b4565b612ce96040830185612c35565b8181036060830152612cfb8184612930565b905095945050505050565b60006020820190508181036000830152612d2081846128c3565b905092915050565b6000602082019050612d3d6000830184612921565b92915050565b60006020820190508181036000830152612d5d8184612969565b905092915050565b60006020820190508181036000830152612d7e816129d3565b9050919050565b60006020820190508181036000830152612d9e816129f6565b9050919050565b60006020820190508181036000830152612dbe81612a19565b9050919050565b60006020820190508181036000830152612dde81612a3c565b9050919050565b60006020820190508181036000830152612dfe81612a5f565b9050919050565b60006020820190508181036000830152612e1e81612a82565b9050919050565b60006020820190508181036000830152612e3e81612aa5565b9050919050565b60006020820190508181036000830152612e5e81612ac8565b9050919050565b60006020820190508181036000830152612e7e81612aeb565b9050919050565b60006020820190508181036000830152612e9e81612b0e565b9050919050565b60006020820190508181036000830152612ebe81612b31565b9050919050565b60006020820190508181036000830152612ede81612b54565b9050919050565b60006020820190508181036000830152612efe81612b77565b9050919050565b60006020820190508181036000830152612f1e81612b9a565b9050919050565b60006020820190508181036000830152612f3e81612bbd565b9050919050565b60006020820190508181036000830152612f5e81612be0565b9050919050565b60006020820190508181036000830152612f7e81612c03565b9050919050565b6000602082019050612f9a6000830184612c35565b92915050565b6000612faa612fbb565b9050612fb68282613246565b919050565b6000604051905090565b600067ffffffffffffffff821115612fe057612fdf61337e565b5b612fe9826133ad565b9050602081019050919050565b600067ffffffffffffffff8211156130115761301061337e565b5b61301a826133ad565b9050602081019050919050565b6000819050602082019050919050565b600081519050919050565b600081519050919050565b600081519050919050565b6000602082019050919050565b600082825260208201905092915050565b600082825260208201905092915050565b600082825260208201905092915050565b600081905092915050565b60006130ae826131c8565b91506130b9836131c8565b9250827fffffffffffffffffffffffffffffffffffffffffffffffffffffffffffffffff038211156130ee576130ed6132f1565b5b828201905092915050565b6000613104826131c8565b915061310f836131c8565b92508261311f5761311e613320565b5b828204905092915050565b6000613135826131c8565b9150613140836131c8565b925082821015613153576131526132f1565b5b828203905092915050565b6000613169826131a8565b9050919050565b60008115159050919050565b60007fffffffff0000000000000000000000000000000000000000000000000000000082169050919050565b600073ffffffffffffffffffffffffffffffffffffffff82169050919050565b6000819050919050565b82818337600083830152505050565b60005b838110156131ff5780820151818401526020810190506131e4565b8381111561320e576000848401525b50505050565b6000600282049050600182168061322c57607f821691505b602082108114156132405761323f61334f565b5b50919050565b61324f826133ad565b810181811067ffffffffffffffff8211171561326e5761326d61337e565b5b80604052505050565b6000613282826131c8565b91507fffffffffffffffffffffffffffffffffffffffffffffffffffffffffffffffff8214156132b5576132b46132f1565b5b600182019050919050565b60006132cb826131c8565b91506132d6836131c8565b9250826132e6576132e5613320565b5b828206905092915050565b7f4e487b7100000000000000000000000000000000000000000000000000000000600052601160045260246000fd5b7f4e487b7100000000000000000000000000000000000000000000000000000000600052601260045260246000fd5b7f4e487b7100000000000000000000000000000000000000000000000000000000600052602260045260246000fd5b7f4e487b7100000000000000000000000000000000000000000000000000000000600052604160045260246000fd5b6000601f19601f8301169050919050565b7f455243373231456e756d657261626c653a206f776e657220696e646578206f7560008201527f74206f6620626f756e6473000000000000000000000000000000000000000000602082015250565b7f4552433732313a207472616e7366657220746f206e6f6e20455243373231526560008201527f63656976657220696d706c656d656e7465720000000000000000000000000000602082015250565b7f4f776e61626c653a206e6577206f776e657220697320746865207a65726f206160008201527f6464726573730000000000000000000000000000000000000000000000000000602082015250565b7f4552433732313a207472616e736665722066726f6d20696e636f72726563742060008201527f6f776e6572000000000000000000000000000000000000000000000000000000602082015250565b7f4552433732313a20746f6b656e20616c7265616479206d696e74656400000000600082015250565b7f4552433732313a207472616e7366657220746f20746865207a65726f2061646460008201527f7265737300000000000000000000000000000000000000000000000000000000602082015250565b7f4552433732313a20617070726f766520746f2063616c6c657200000000000000600082015250565b7f4552433732313a2061646472657373207a65726f206973206e6f74206120766160008201527f6c6964206f776e65720000000000000000000000000000000000000000000000602082015250565b7f45524337323155524953746f726167653a2055524920736574206f66206e6f6e60008201527f6578697374656e7420746f6b656e000000000000000000000000000000000000602082015250565b7f4552433732313a20617070726f76652063616c6c6572206973206e6f7420746f60008201527f6b656e206f776e6572206e6f7220617070726f76656420666f7220616c6c0000602082015250565b7f4552433732313a206d696e7420746f20746865207a65726f2061646472657373600082015250565b7f4f776e61626c653a2063616c6c6572206973206e6f7420746865206f776e6572600082015250565b7f4552433732313a20696e76616c696420746f6b656e2049440000000000000000600082015250565b7f4552433732313a20617070726f76616c20746f2063757272656e74206f776e6560008201527f7200000000000000000000000000000000000000000000000000000000000000602082015250565b7f5472616e73666572206661696c65642e00000000000000000000000000000000600082015250565b7f455243373231456e756d657261626c653a20676c6f62616c20696e646578206f60008201527f7574206f6620626f756e64730000000000000000000000000000000000000000602082015250565b7f4552433732313a2063616c6c6572206973206e6f7420746f6b656e206f776e6560008201527f72206e6f7220617070726f766564000000000000000000000000000000000000602082015250565b6138228161315e565b811461382d57600080fd5b50565b61383981613170565b811461384457600080fd5b50565b6138508161317c565b811461385b57600080fd5b50565b613867816131c8565b811461387257600080fd5b5056fea2646970667358221220bed47f9b2bbab5d5b2c7961ae65c73232e9a825d7e13ff6dd5cf7bdfaa2a9bc764736f6c63430008040033",
  "linkReferences": {},
  "deployedLinkReferences": {}
}