{
  "_format": "hh-sol-artifact-1",
  "contractName": "CeloAvatars",
  "sourceName": "contracts/CeloAvatars.sol",
  "abi": [
    {
      "inputs": [
        {
          "internalType": "uint256",
          "name": "_mintFee",
          "type": "uint256"
        },
        {
          "internalType": "address",
          "name": "_mintFeeToken",
          "type": "address"
        }
      ],
      "stateMutability": "nonpayable",
      "type": "constructor"
    },
    {
      "anonymous": false,
      "inputs": [
        {
          "indexed": true,
          "internalType": "address",
          "name": "owner",
          "type": "address"
        },
        {
          "indexed": true,
          "internalType": "address",
          "name": "approved",
          "type": "address"
        },
        {
          "indexed": true,
          "internalType": "uint256",
          "name": "tokenId",
          "type": "uint256"
        }
      ],
      "name": "Approval",
      "type": "event"
    },
    {
      "anonymous": false,
      "inputs": [
        {
          "indexed": true,
          "internalType": "address",
          "name": "owner",
          "type": "address"
        },
        {
          "indexed": true,
          "internalType": "address",
          "name": "operator",
          "type": "address"
        },
        {
          "indexed": false,
          "internalType": "bool",
          "name": "approved",
          "type": "bool"
        }
      ],
      "name": "ApprovalForAll",
      "type": "event"
    },
    {
      "anonymous": false,
      "inputs": [
        {
          "indexed": true,
          "internalType": "address",
          "name": "previousOwner",
          "type": "address"
        },
        {
          "indexed": true,
          "internalType": "address",
          "name": "newOwner",
          "type": "address"
        }
      ],
      "name": "OwnershipTransferred",
      "type": "event"
    },
    {
      "anonymous": false,
      "inputs": [
        {
          "indexed": true,
          "internalType": "address",
          "name": "from",
          "type": "address"
        },
        {
          "indexed": true,
          "internalType": "address",
          "name": "to",
          "type": "address"
        },
        {
          "indexed": true,
          "internalType": "uint256",
          "name": "tokenId",
          "type": "uint256"
        }
      ],
      "name": "Transfer",
      "type": "event"
    },
    {
      "inputs": [
        {
          "internalType": "address",
          "name": "to",
          "type": "address"
        },
        {
          "internalType": "uint256",
          "name": "tokenId",
          "type": "uint256"
        }
      ],
      "name": "approve",
      "outputs": [],
      "stateMutability": "nonpayable",
      "type": "function"
    },
    {
      "inputs": [
        {
          "internalType": "address",
          "name": "owner",
          "type": "address"
        }
      ],
      "name": "balanceOf",
      "outputs": [
        {
          "internalType": "uint256",
          "name": "",
          "type": "uint256"
        }
      ],
      "stateMutability": "view",
      "type": "function"
    },
    {
      "inputs": [
        {
          "internalType": "uint256",
          "name": "tokenId",
          "type": "uint256"
        }
      ],
      "name": "getApproved",
      "outputs": [
        {
          "internalType": "address",
          "name": "",
          "type": "address"
        }
      ],
      "stateMutability": "view",
      "type": "function"
    },
    {
      "inputs": [],
      "name": "getMintingFee",
      "outputs": [
        {
          "internalType": "uint256",
          "name": "",
          "type": "uint256"
        }
      ],
      "stateMutability": "view",
      "type": "function"
    },
    {
      "inputs": [
        {
          "internalType": "address",
          "name": "_wallet",
          "type": "address"
        }
      ],
      "name": "getTokenIdsByOwner",
      "outputs": [
        {
          "internalType": "uint256[]",
          "name": "",
          "type": "uint256[]"
        }
      ],
      "stateMutability": "view",
      "type": "function"
    },
    {
      "inputs": [
        {
          "internalType": "address",
          "name": "owner",
          "type": "address"
        },
        {
          "internalType": "address",
          "name": "operator",
          "type": "address"
        }
      ],
      "name": "isApprovedForAll",
      "outputs": [
        {
          "internalType": "bool",
          "name": "",
          "type": "bool"
        }
      ],
      "stateMutability": "view",
      "type": "function"
    },
    {
      "inputs": [],
      "name": "name",
      "outputs": [
        {
          "internalType": "string",
          "name": "",
          "type": "string"
        }
      ],
      "stateMutability": "view",
      "type": "function"
    },
    {
      "inputs": [],
      "name": "owner",
      "outputs": [
        {
          "internalType": "address",
          "name": "",
          "type": "address"
        }
      ],
      "stateMutability": "view",
      "type": "function"
    },
    {
      "inputs": [
        {
          "internalType": "uint256",
          "name": "tokenId",
          "type": "uint256"
        }
      ],
      "name": "ownerOf",
      "outputs": [
        {
          "internalType": "address",
          "name": "",
          "type": "address"
        }
      ],
      "stateMutability": "view",
      "type": "function"
    },
    {
      "inputs": [],
      "name": "renounceOwnership",
      "outputs": [],
      "stateMutability": "nonpayable",
      "type": "function"
    },
    {
      "inputs": [
        {
          "internalType": "address",
          "name": "to",
          "type": "address"
        },
        {
          "internalType": "string",
          "name": "uri",
          "type": "string"
        }
      ],
      "name": "safeMint",
      "outputs": [],
      "stateMutability": "nonpayable",
      "type": "function"
    },
    {
      "inputs": [
        {
          "internalType": "address",
          "name": "from",
          "type": "address"
        },
        {
          "internalType": "address",
          "name": "to",
          "type": "address"
        },
        {
          "internalType": "uint256",
          "name": "tokenId",
          "type": "uint256"
        }
      ],
      "name": "safeTransferFrom",
      "outputs": [],
      "stateMutability": "nonpayable",
      "type": "function"
    },
    {
      "inputs": [
        {
          "internalType": "address",
          "name": "from",
          "type": "address"
        },
        {
          "internalType": "address",
          "name": "to",
          "type": "address"
        },
        {
          "internalType": "uint256",
          "name": "tokenId",
          "type": "uint256"
        },
        {
          "internalType": "bytes",
          "name": "data",
          "type": "bytes"
        }
      ],
      "name": "safeTransferFrom",
      "outputs": [],
      "stateMutability": "nonpayable",
      "type": "function"
    },
    {
      "inputs": [
        {
          "internalType": "address",
          "name": "operator",
          "type": "address"
        },
        {
          "internalType": "bool",
          "name": "approved",
          "type": "bool"
        }
      ],
      "name": "setApprovalForAll",
      "outputs": [],
      "stateMutability": "nonpayable",
      "type": "function"
    },
    {
      "inputs": [
        {
          "internalType": "bytes4",
          "name": "interfaceId",
          "type": "bytes4"
        }
      ],
      "name": "supportsInterface",
      "outputs": [
        {
          "internalType": "bool",
          "name": "",
          "type": "bool"
        }
      ],
      "stateMutability": "view",
      "type": "function"
    },
    {
      "inputs": [],
      "name": "symbol",
      "outputs": [
        {
          "internalType": "string",
          "name": "",
          "type": "string"
        }
      ],
      "stateMutability": "view",
      "type": "function"
    },
    {
      "inputs": [
        {
          "internalType": "uint256",
          "name": "index",
          "type": "uint256"
        }
      ],
      "name": "tokenByIndex",
      "outputs": [
        {
          "internalType": "uint256",
          "name": "",
          "type": "uint256"
        }
      ],
      "stateMutability": "view",
      "type": "function"
    },
    {
      "inputs": [
        {
          "internalType": "address",
          "name": "owner",
          "type": "address"
        },
        {
          "internalType": "uint256",
          "name": "index",
          "type": "uint256"
        }
      ],
      "name": "tokenOfOwnerByIndex",
      "outputs": [
        {
          "internalType": "uint256",
          "name": "",
          "type": "uint256"
        }
      ],
      "stateMutability": "view",
      "type": "function"
    },
    {
      "inputs": [
        {
          "internalType": "uint256",
          "name": "tokenId",
          "type": "uint256"
        }
      ],
      "name": "tokenURI",
      "outputs": [
        {
          "internalType": "string",
          "name": "",
          "type": "string"
        }
      ],
      "stateMutability": "view",
      "type": "function"
    },
    {
      "inputs": [],
      "name": "totalSupply",
      "outputs": [
        {
          "internalType": "uint256",
          "name": "",
          "type": "uint256"
        }
      ],
      "stateMutability": "view",
      "type": "function"
    },
    {
      "inputs": [
        {
          "internalType": "address",
          "name": "from",
          "type": "address"
        },
        {
          "internalType": "address",
          "name": "to",
          "type": "address"
        },
        {
          "internalType": "uint256",
          "name": "tokenId",
          "type": "uint256"
        }
      ],
      "name": "transferFrom",
      "outputs": [],
      "stateMutability": "nonpayable",
      "type": "function"
    },
    {
      "inputs": [
        {
          "internalType": "address",
          "name": "newOwner",
          "type": "address"
        }
      ],
      "name": "transferOwnership",
      "outputs": [],
      "stateMutability": "nonpayable",
      "type": "function"
    }
  ],
  "bytecode": "0x60806040523480156200001157600080fd5b5060405162003d6338038062003d63833981810160405281019062000037919062000308565b6040518060400160405280600b81526020017f43656c6f417661746172730000000000000000000000000000000000000000008152506040518060400160405280600481526020017f63415654000000000000000000000000000000000000000000000000000000008152508160009080519060200190620000bb9291906200022a565b508060019080519060200190620000d49291906200022a565b505050620000f7620000eb6200015c60201b60201c565b6200016460201b60201c565b670de0b6b3a7640000826200010d919062000349565b600d8190555080600e60006101000a81548173ffffffffffffffffffffffffffffffffffffffff021916908373ffffffffffffffffffffffffffffffffffffffff1602179055505050620004b0565b600033905090565b6000600b60009054906101000a900473ffffffffffffffffffffffffffffffffffffffff16905081600b60006101000a81548173ffffffffffffffffffffffffffffffffffffffff021916908373ffffffffffffffffffffffffffffffffffffffff1602179055508173ffffffffffffffffffffffffffffffffffffffff168173ffffffffffffffffffffffffffffffffffffffff167f8be0079c531659141344cd1fd0a4f28419497f9722a3daafe3b4186f6b6457e060405160405180910390a35050565b8280546200023890620003e8565b90600052602060002090601f0160209004810192826200025c5760008555620002a8565b82601f106200027757805160ff1916838001178555620002a8565b82800160010185558215620002a8579182015b82811115620002a75782518255916020019190600101906200028a565b5b509050620002b79190620002bb565b5090565b5b80821115620002d6576000816000905550600101620002bc565b5090565b600081519050620002eb816200047c565b92915050565b600081519050620003028162000496565b92915050565b600080604083850312156200031c57600080fd5b60006200032c85828601620002f1565b92505060206200033f85828601620002da565b9150509250929050565b60006200035682620003de565b91506200036383620003de565b9250817fffffffffffffffffffffffffffffffffffffffffffffffffffffffffffffffff04831182151516156200039f576200039e6200041e565b5b828202905092915050565b6000620003b782620003be565b9050919050565b600073ffffffffffffffffffffffffffffffffffffffff82169050919050565b6000819050919050565b600060028204905060018216806200040157607f821691505b602082108114156200041857620004176200044d565b5b50919050565b7f4e487b7100000000000000000000000000000000000000000000000000000000600052601160045260246000fd5b7f4e487b7100000000000000000000000000000000000000000000000000000000600052602260045260246000fd5b6200048781620003aa565b81146200049357600080fd5b50565b620004a181620003de565b8114620004ad57600080fd5b50565b6138a380620004c06000396000f3fe608060405234801561001057600080fd5b50600436106101425760003560e01c806370a08231116100b8578063b59d88a91161007c578063b59d88a914610389578063b88d4fde146103a7578063c87b56dd146103c3578063d204c45e146103f3578063e985e9c51461040f578063f2fde38b1461043f57610142565b806370a08231146102f7578063715018a6146103275780638da5cb5b1461033157806395d89b411461034f578063a22cb4651461036d57610142565b806323b872dd1161010a57806323b872dd146101ff5780632f745c591461021b57806342842e0e1461024b5780634f6ccce7146102675780636352211e146102975780636970bb0a146102c757610142565b806301ffc9a71461014757806306fdde0314610177578063081812fc14610195578063095ea7b3146101c557806318160ddd146101e1575b600080fd5b610161600480360381019061015c9190612819565b61045b565b60405161016e9190612d20565b60405180910390f35b61017f61046d565b60405161018c9190612d3b565b60405180910390f35b6101af60048036038101906101aa919061286b565b6104ff565b6040516101bc9190612c60565b60405180910390f35b6101df60048036038101906101da91906127b4565b610545565b005b6101e961065d565b6040516101f69190612f7d565b60405180910390f35b6102196004803603810190610214919061265a565b61066a565b005b610235600480360381019061023091906127b4565b6106ca565b6040516102429190612f7d565b60405180910390f35b6102656004803603810190610260919061265a565b61076f565b005b610281600480360381019061027c919061286b565b61078f565b60405161028e9190612f7d565b60405180910390f35b6102b160048036038101906102ac919061286b565b610826565b6040516102be9190612c60565b60405180910390f35b6102e160048036038101906102dc91906125f5565b6108d8565b6040516102ee9190612cfe565b60405180910390f35b610311600480360381019061030c91906125f5565b61096f565b60405161031e9190612f7d565b60405180910390f35b61032f610a27565b005b610339610a3b565b6040516103469190612c60565b60405180910390f35b610357610a65565b6040516103649190612d3b565b60405180910390f35b61038760048036038101906103829190612724565b610af7565b005b610391610b0d565b60405161039e9190612f7d565b60405180910390f35b6103c160048036038101906103bc91906126a9565b610b17565b005b6103dd60048036038101906103d8919061286b565b610b79565b6040516103ea9190612d3b565b60405180910390f35b61040d60048036038101906104089190612760565b610b8b565b005b6104296004803603810190610424919061261e565b610d1b565b6040516104369190612d20565b60405180910390f35b610459600480360381019061045491906125f5565b610daf565b005b600061046682610e33565b9050919050565b60606000805461047c9061320c565b80601f01602080910402602001604051908101604052809291908181526020018280546104a89061320c565b80156104f55780601f106104ca576101008083540402835291602001916104f5565b820191906000526020600020905b8154815290600101906020018083116104d857829003601f168201915b5050505050905090565b600061050a82610ead565b6004600083815260200190815260200160002060009054906101000a900473ffffffffffffffffffffffffffffffffffffffff169050919050565b600061055082610826565b90508073ffffffffffffffffffffffffffffffffffffffff168373ffffffffffffffffffffffffffffffffffffffff1614156105c1576040517f08c379a00000000000000000000000000000000000000000000000000000000081526004016105b890612efd565b60405180910390fd5b8073ffffffffffffffffffffffffffffffffffffffff166105e0610ef8565b73ffffffffffffffffffffffffffffffffffffffff16148061060f575061060e81610609610ef8565b610d1b565b5b61064e576040517f08c379a000000000000000000000000000000000000000000000000000000000815260040161064590612e7d565b60405180910390fd5b6106588383610f00565b505050565b6000600880549050905090565b61067b610675610ef8565b82610fb9565b6106ba576040517f08c379a00000000000000000000000000000000000000000000000000000000081526004016106b190612f5d565b60405180910390fd5b6106c583838361104e565b505050565b60006106d58361096f565b8210610716576040517f08c379a000000000000000000000000000000000000000000000000000000000815260040161070d90612d5d565b60405180910390fd5b600660008473ffffffffffffffffffffffffffffffffffffffff1673ffffffffffffffffffffffffffffffffffffffff168152602001908152602001600020600083815260200190815260200160002054905092915050565b61078a83838360405180602001604052806000815250610b17565b505050565b600061079961065d565b82106107da576040517f08c379a00000000000000000000000000000000000000000000000000000000081526004016107d190612f3d565b60405180910390fd5b60088281548110610814577f4e487b7100000000000000000000000000000000000000000000000000000000600052603260045260246000fd5b90600052602060002001549050919050565b6000806002600084815260200190815260200160002060009054906101000a900473ffffffffffffffffffffffffffffffffffffffff169050600073ffffffffffffffffffffffffffffffffffffffff168173ffffffffffffffffffffffffffffffffffffffff1614156108cf576040517f08c379a00000000000000000000000000000000000000000000000000000000081526004016108c690612edd565b60405180910390fd5b80915050919050565b6060600f60008373ffffffffffffffffffffffffffffffffffffffff1673ffffffffffffffffffffffffffffffffffffffff16815260200190815260200160002080548060200260200160405190810160405280929190818152602001828054801561096357602002820191906000526020600020905b81548152602001906001019080831161094f575b50505050509050919050565b60008073ffffffffffffffffffffffffffffffffffffffff168273ffffffffffffffffffffffffffffffffffffffff1614156109e0576040517f08c379a00000000000000000000000000000000000000000000000000000000081526004016109d790612e3d565b60405180910390fd5b600360008373ffffffffffffffffffffffffffffffffffffffff1673ffffffffffffffffffffffffffffffffffffffff168152602001908152602001600020549050919050565b610a2f6112b5565b610a396000611333565b565b6000600b60009054906101000a900473ffffffffffffffffffffffffffffffffffffffff16905090565b606060018054610a749061320c565b80601f0160208091040260200160405190810160405280929190818152602001828054610aa09061320c565b8015610aed5780601f10610ac257610100808354040283529160200191610aed565b820191906000526020600020905b815481529060010190602001808311610ad057829003601f168201915b5050505050905090565b610b09610b02610ef8565b83836113f9565b5050565b6000600d54905090565b610b28610b22610ef8565b83610fb9565b610b67576040517f08c379a0000000000000000000000000000000000000000000000000000000008152600401610b5e90612f5d565b60405180910390fd5b610b7384848484611566565b50505050565b6060610b84826115c2565b9050919050565b600e60009054906101000a900473ffffffffffffffffffffffffffffffffffffffff1673ffffffffffffffffffffffffffffffffffffffff166323b872dd33610bd2610a3b565b600d546040518463ffffffff1660e01b8152600401610bf393929190612c7b565b602060405180830381600087803b158015610c0d57600080fd5b505af1158015610c21573d6000803e3d6000fd5b505050506040513d601f19601f82011682018060405250810190610c4591906127f0565b610c84576040517f08c379a0000000000000000000000000000000000000000000000000000000008152600401610c7b90612f1d565b60405180910390fd5b6000610c90600c6116d5565b9050610c9c600c6116e3565b610ca683826116f9565b610cb08183611717565b600f60008473ffffffffffffffffffffffffffffffffffffffff1673ffffffffffffffffffffffffffffffffffffffff168152602001908152602001600020819080600181540180825580915050600190039060005260206000200160009091909190915055505050565b6000600560008473ffffffffffffffffffffffffffffffffffffffff1673ffffffffffffffffffffffffffffffffffffffff16815260200190815260200160002060008373ffffffffffffffffffffffffffffffffffffffff1673ffffffffffffffffffffffffffffffffffffffff16815260200190815260200160002060009054906101000a900460ff16905092915050565b610db76112b5565b600073ffffffffffffffffffffffffffffffffffffffff168173ffffffffffffffffffffffffffffffffffffffff161415610e27576040517f08c379a0000000000000000000000000000000000000000000000000000000008152600401610e1e90612d9d565b60405180910390fd5b610e3081611333565b50565b60007f780e9d63000000000000000000000000000000000000000000000000000000007bffffffffffffffffffffffffffffffffffffffffffffffffffffffff1916827bffffffffffffffffffffffffffffffffffffffffffffffffffffffff19161480610ea65750610ea58261178b565b5b9050919050565b610eb68161186d565b610ef5576040517f08c379a0000000000000000000000000000000000000000000000000000000008152600401610eec90612edd565b60405180910390fd5b50565b600033905090565b816004600083815260200190815260200160002060006101000a81548173ffffffffffffffffffffffffffffffffffffffff021916908373ffffffffffffffffffffffffffffffffffffffff160217905550808273ffffffffffffffffffffffffffffffffffffffff16610f7383610826565b73ffffffffffffffffffffffffffffffffffffffff167f8c5be1e5ebec7d5bd14f71427d1e84f3dd0314c0f7b2291e5b200ac8c7c3b92560405160405180910390a45050565b600080610fc583610826565b90508073ffffffffffffffffffffffffffffffffffffffff168473ffffffffffffffffffffffffffffffffffffffff16148061100757506110068185610d1b565b5b8061104557508373ffffffffffffffffffffffffffffffffffffffff1661102d846104ff565b73ffffffffffffffffffffffffffffffffffffffff16145b91505092915050565b8273ffffffffffffffffffffffffffffffffffffffff1661106e82610826565b73ffffffffffffffffffffffffffffffffffffffff16146110c4576040517f08c379a00000000000000000000000000000000000000000000000000000000081526004016110bb90612dbd565b60405180910390fd5b600073ffffffffffffffffffffffffffffffffffffffff168273ffffffffffffffffffffffffffffffffffffffff161415611134576040517f08c379a000000000000000000000000000000000000000000000000000000000815260040161112b90612dfd565b60405180910390fd5b61113f8383836118d9565b61114a600082610f00565b6001600360008573ffffffffffffffffffffffffffffffffffffffff1673ffffffffffffffffffffffffffffffffffffffff168152602001908152602001600020600082825461119a9190613122565b925050819055506001600360008473ffffffffffffffffffffffffffffffffffffffff1673ffffffffffffffffffffffffffffffffffffffff16815260200190815260200160002060008282546111f1919061309b565b92505081905550816002600083815260200190815260200160002060006101000a81548173ffffffffffffffffffffffffffffffffffffffff021916908373ffffffffffffffffffffffffffffffffffffffff160217905550808273ffffffffffffffffffffffffffffffffffffffff168473ffffffffffffffffffffffffffffffffffffffff167fddf252ad1be2c89b69c2b068fc378daa952ba7f163c4a11628f55a4df523b3ef60405160405180910390a46112b08383836118e9565b505050565b6112bd610ef8565b73ffffffffffffffffffffffffffffffffffffffff166112db610a3b565b73ffffffffffffffffffffffffffffffffffffffff1614611331576040517f08c379a000000000000000000000000000000000000000000000000000000000815260040161132890612ebd565b60405180910390fd5b565b6000600b60009054906101000a900473ffffffffffffffffffffffffffffffffffffffff16905081600b60006101000a81548173ffffffffffffffffffffffffffffffffffffffff021916908373ffffffffffffffffffffffffffffffffffffffff1602179055508173ffffffffffffffffffffffffffffffffffffffff168173ffffffffffffffffffffffffffffffffffffffff167f8be0079c531659141344cd1fd0a4f28419497f9722a3daafe3b4186f6b6457e060405160405180910390a35050565b8173ffffffffffffffffffffffffffffffffffffffff168373ffffffffffffffffffffffffffffffffffffffff161415611468576040517f08c379a000000000000000000000000000000000000000000000000000000000815260040161145f90612e1d565b60405180910390fd5b80600560008573ffffffffffffffffffffffffffffffffffffffff1673ffffffffffffffffffffffffffffffffffffffff16815260200190815260200160002060008473ffffffffffffffffffffffffffffffffffffffff1673ffffffffffffffffffffffffffffffffffffffff16815260200190815260200160002060006101000a81548160ff0219169083151502179055508173ffffffffffffffffffffffffffffffffffffffff168373ffffffffffffffffffffffffffffffffffffffff167f17307eab39ab6107e8899845ad3d59bd9653f200f220920489ca2b5937696c31836040516115599190612d20565b60405180910390a3505050565b61157184848461104e565b61157d848484846118ee565b6115bc576040517f08c379a00000000000000000000000000000000000000000000000000000000081526004016115b390612d7d565b60405180910390fd5b50505050565b60606115cd82610ead565b6000600a600084815260200190815260200160002080546115ed9061320c565b80601f01602080910402602001604051908101604052809291908181526020018280546116199061320c565b80156116665780601f1061163b57610100808354040283529160200191611666565b820191906000526020600020905b81548152906001019060200180831161164957829003601f168201915b505050505090506000611677611a85565b905060008151141561168d5781925050506116d0565b6000825111156116c25780826040516020016116aa929190612c3c565b604051602081830303815290604052925050506116d0565b6116cb84611a9c565b925050505b919050565b600081600001549050919050565b6001816000016000828254019250508190555050565b611713828260405180602001604052806000815250611b04565b5050565b6117208261186d565b61175f576040517f08c379a000000000000000000000000000000000000000000000000000000000815260040161175690612e5d565b60405180910390fd5b80600a60008481526020019081526020016000209080519060200190611786929190612404565b505050565b60007f80ac58cd000000000000000000000000000000000000000000000000000000007bffffffffffffffffffffffffffffffffffffffffffffffffffffffff1916827bffffffffffffffffffffffffffffffffffffffffffffffffffffffff1916148061185657507f5b5e139f000000000000000000000000000000000000000000000000000000007bffffffffffffffffffffffffffffffffffffffffffffffffffffffff1916827bffffffffffffffffffffffffffffffffffffffffffffffffffffffff1916145b80611866575061186582611b5f565b5b9050919050565b60008073ffffffffffffffffffffffffffffffffffffffff166002600084815260200190815260200160002060009054906101000a900473ffffffffffffffffffffffffffffffffffffffff1673ffffffffffffffffffffffffffffffffffffffff1614159050919050565b6118e4838383611bc9565b505050565b505050565b600061190f8473ffffffffffffffffffffffffffffffffffffffff16611cdd565b15611a78578373ffffffffffffffffffffffffffffffffffffffff1663150b7a02611938610ef8565b8786866040518563ffffffff1660e01b815260040161195a9493929190612cb2565b602060405180830381600087803b15801561197457600080fd5b505af19250505080156119a557506040513d601f19601f820116820180604052508101906119a29190612842565b60015b611a28573d80600081146119d5576040519150601f19603f3d011682016040523d82523d6000602084013e6119da565b606091505b50600081511415611a20576040517f08c379a0000000000000000000000000000000000000000000000000000000008152600401611a1790612d7d565b60405180910390fd5b805181602001fd5b63150b7a0260e01b7bffffffffffffffffffffffffffffffffffffffffffffffffffffffff1916817bffffffffffffffffffffffffffffffffffffffffffffffffffffffff191614915050611a7d565b600190505b949350505050565b606060405180602001604052806000815250905090565b6060611aa782610ead565b6000611ab1611a85565b90506000815111611ad15760405180602001604052806000815250611afc565b80611adb84611d00565b604051602001611aec929190612c3c565b6040516020818303038152906040525b915050919050565b611b0e8383611ead565b611b1b60008484846118ee565b611b5a576040517f08c379a0000000000000000000000000000000000000000000000000000000008152600401611b5190612d7d565b60405180910390fd5b505050565b60007f01ffc9a7000000000000000000000000000000000000000000000000000000007bffffffffffffffffffffffffffffffffffffffffffffffffffffffff1916827bffffffffffffffffffffffffffffffffffffffffffffffffffffffff1916149050919050565b611bd4838383612087565b600073ffffffffffffffffffffffffffffffffffffffff168373ffffffffffffffffffffffffffffffffffffffff161415611c1757611c128161208c565b611c56565b8173ffffffffffffffffffffffffffffffffffffffff168373ffffffffffffffffffffffffffffffffffffffff1614611c5557611c5483826120d5565b5b5b600073ffffffffffffffffffffffffffffffffffffffff168273ffffffffffffffffffffffffffffffffffffffff161415611c9957611c9481612242565b611cd8565b8273ffffffffffffffffffffffffffffffffffffffff168273ffffffffffffffffffffffffffffffffffffffff1614611cd757611cd68282612385565b5b5b505050565b6000808273ffffffffffffffffffffffffffffffffffffffff163b119050919050565b60606000821415611d48576040518060400160405280600181526020017f30000000000000000000000000000000000000000000000000000000000000008152509050611ea8565b600082905060005b60008214611d7a578080611d639061326f565b915050600a82611d7391906130f1565b9150611d50565b60008167ffffffffffffffff811115611dbc577f4e487b7100000000000000000000000000000000000000000000000000000000600052604160045260246000fd5b6040519080825280601f01601f191660200182016040528015611dee5781602001600182028036833780820191505090505b5090505b60008514611ea157600182611e079190613122565b9150600a85611e1691906132b8565b6030611e22919061309b565b60f81b818381518110611e5e577f4e487b7100000000000000000000000000000000000000000000000000000000600052603260045260246000fd5b60200101907effffffffffffffffffffffffffffffffffffffffffffffffffffffffffffff1916908160001a905350600a85611e9a91906130f1565b9450611df2565b8093505050505b919050565b600073ffffffffffffffffffffffffffffffffffffffff168273ffffffffffffffffffffffffffffffffffffffff161415611f1d576040517f08c379a0000000000000000000000000000000000000000000000000000000008152600401611f1490612e9d565b60405180910390fd5b611f268161186d565b15611f66576040517f08c379a0000000000000000000000000000000000000000000000000000000008152600401611f5d90612ddd565b60405180910390fd5b611f72600083836118d9565b6001600360008473ffffffffffffffffffffffffffffffffffffffff1673ffffffffffffffffffffffffffffffffffffffff1681526020019081526020016000206000828254611fc2919061309b565b92505081905550816002600083815260200190815260200160002060006101000a81548173ffffffffffffffffffffffffffffffffffffffff021916908373ffffffffffffffffffffffffffffffffffffffff160217905550808273ffffffffffffffffffffffffffffffffffffffff16600073ffffffffffffffffffffffffffffffffffffffff167fddf252ad1be2c89b69c2b068fc378daa952ba7f163c4a11628f55a4df523b3ef60405160405180910390a4612083600083836118e9565b5050565b505050565b6008805490506009600083815260200190815260200160002081905550600881908060018154018082558091505060019003906000526020600020016000909190919091505550565b600060016120e28461096f565b6120ec9190613122565b90506000600760008481526020019081526020016000205490508181146121d1576000600660008673ffffffffffffffffffffffffffffffffffffffff1673ffffffffffffffffffffffffffffffffffffffff168152602001908152602001600020600084815260200190815260200160002054905080600660008773ffffffffffffffffffffffffffffffffffffffff1673ffffffffffffffffffffffffffffffffffffffff168152602001908152602001600020600084815260200190815260200160002081905550816007600083815260200190815260200160002081905550505b6007600084815260200190815260200160002060009055600660008573ffffffffffffffffffffffffffffffffffffffff1673ffffffffffffffffffffffffffffffffffffffff16815260200190815260200160002060008381526020019081526020016000206000905550505050565b600060016008805490506122569190613122565b90506000600960008481526020019081526020016000205490506000600883815481106122ac577f4e487b7100000000000000000000000000000000000000000000000000000000600052603260045260246000fd5b9060005260206000200154905080600883815481106122f4577f4e487b7100000000000000000000000000000000000000000000000000000000600052603260045260246000fd5b906000526020600020018190555081600960008381526020019081526020016000208190555060096000858152602001908152602001600020600090556008805480612369577f4e487b7100000000000000000000000000000000000000000000000000000000600052603160045260246000fd5b6001900381819060005260206000200160009055905550505050565b60006123908361096f565b905081600660008573ffffffffffffffffffffffffffffffffffffffff1673ffffffffffffffffffffffffffffffffffffffff168152602001908152602001600020600083815260200190815260200160002081905550806007600084815260200190815260200160002081905550505050565b8280546124109061320c565b90600052602060002090601f0160209004810192826124325760008555612479565b82601f1061244b57805160ff1916838001178555612479565b82800160010185558215612479579182015b8281111561247857825182559160200191906001019061245d565b5b509050612486919061248a565b5090565b5b808211156124a357600081600090555060010161248b565b5090565b60006124ba6124b584612fbd565b612f98565b9050828152602081018484840111156124d257600080fd5b6124dd8482856131ca565b509392505050565b60006124f86124f384612fee565b612f98565b90508281526020810184848401111561251057600080fd5b61251b8482856131ca565b509392505050565b60008135905061253281613811565b92915050565b60008135905061254781613828565b92915050565b60008151905061255c81613828565b92915050565b6000813590506125718161383f565b92915050565b6000815190506125868161383f565b92915050565b600082601f83011261259d57600080fd5b81356125ad8482602086016124a7565b91505092915050565b600082601f8301126125c757600080fd5b81356125d78482602086016124e5565b91505092915050565b6000813590506125ef81613856565b92915050565b60006020828403121561260757600080fd5b600061261584828501612523565b91505092915050565b6000806040838503121561263157600080fd5b600061263f85828601612523565b925050602061265085828601612523565b9150509250929050565b60008060006060848603121561266f57600080fd5b600061267d86828701612523565b935050602061268e86828701612523565b925050604061269f868287016125e0565b9150509250925092565b600080600080608085870312156126bf57600080fd5b60006126cd87828801612523565b94505060206126de87828801612523565b93505060406126ef878288016125e0565b925050606085013567ffffffffffffffff81111561270c57600080fd5b6127188782880161258c565b91505092959194509250565b6000806040838503121561273757600080fd5b600061274585828601612523565b925050602061275685828601612538565b9150509250929050565b6000806040838503121561277357600080fd5b600061278185828601612523565b925050602083013567ffffffffffffffff81111561279e57600080fd5b6127aa858286016125b6565b9150509250929050565b600080604083850312156127c757600080fd5b60006127d585828601612523565b92505060206127e6858286016125e0565b9150509250929050565b60006020828403121561280257600080fd5b60006128108482850161254d565b91505092915050565b60006020828403121561282b57600080fd5b600061283984828501612562565b91505092915050565b60006020828403121561285457600080fd5b600061286284828501612577565b91505092915050565b60006020828403121561287d57600080fd5b600061288b848285016125e0565b91505092915050565b60006128a08383612c1e565b60208301905092915050565b6128b581613156565b82525050565b60006128c68261302f565b6128d0818561305d565b93506128db8361301f565b8060005b8381101561290c5781516128f38882612894565b97506128fe83613050565b9250506001810190506128df565b5085935050505092915050565b61292281613168565b82525050565b60006129338261303a565b61293d818561306e565b935061294d8185602086016131d9565b612956816133a5565b840191505092915050565b600061296c82613045565b612976818561307f565b93506129868185602086016131d9565b61298f816133a5565b840191505092915050565b60006129a582613045565b6129af8185613090565b93506129bf8185602086016131d9565b80840191505092915050565b60006129d8602b8361307f565b91506129e3826133b6565b604082019050919050565b60006129fb60328361307f565b9150612a0682613405565b604082019050919050565b6000612a1e60268361307f565b9150612a2982613454565b604082019050919050565b6000612a4160258361307f565b9150612a4c826134a3565b604082019050919050565b6000612a64601c8361307f565b9150612a6f826134f2565b602082019050919050565b6000612a8760248361307f565b9150612a928261351b565b604082019050919050565b6000612aaa60198361307f565b9150612ab58261356a565b602082019050919050565b6000612acd60298361307f565b9150612ad882613593565b604082019050919050565b6000612af0602e8361307f565b9150612afb826135e2565b604082019050919050565b6000612b13603e8361307f565b9150612b1e82613631565b604082019050919050565b6000612b3660208361307f565b9150612b4182613680565b602082019050919050565b6000612b5960208361307f565b9150612b64826136a9565b602082019050919050565b6000612b7c60188361307f565b9150612b87826136d2565b602082019050919050565b6000612b9f60218361307f565b9150612baa826136fb565b604082019050919050565b6000612bc260108361307f565b9150612bcd8261374a565b602082019050919050565b6000612be5602c8361307f565b9150612bf082613773565b604082019050919050565b6000612c08602e8361307f565b9150612c13826137c2565b604082019050919050565b612c27816131c0565b82525050565b612c36816131c0565b82525050565b6000612c48828561299a565b9150612c54828461299a565b91508190509392505050565b6000602082019050612c7560008301846128ac565b92915050565b6000606082019050612c9060008301866128ac565b612c9d60208301856128ac565b612caa6040830184612c2d565b949350505050565b6000608082019050612cc760008301876128ac565b612cd460208301866128ac565b612ce16040830185612c2d565b8181036060830152612cf38184612928565b905095945050505050565b60006020820190508181036000830152612d1881846128bb565b905092915050565b6000602082019050612d356000830184612919565b92915050565b60006020820190508181036000830152612d558184612961565b905092915050565b60006020820190508181036000830152612d76816129cb565b9050919050565b60006020820190508181036000830152612d96816129ee565b9050919050565b60006020820190508181036000830152612db681612a11565b9050919050565b60006020820190508181036000830152612dd681612a34565b9050919050565b60006020820190508181036000830152612df681612a57565b9050919050565b60006020820190508181036000830152612e1681612a7a565b9050919050565b60006020820190508181036000830152612e3681612a9d565b9050919050565b60006020820190508181036000830152612e5681612ac0565b9050919050565b60006020820190508181036000830152612e7681612ae3565b9050919050565b60006020820190508181036000830152612e9681612b06565b9050919050565b60006020820190508181036000830152612eb681612b29565b9050919050565b60006020820190508181036000830152612ed681612b4c565b9050919050565b60006020820190508181036000830152612ef681612b6f565b9050919050565b60006020820190508181036000830152612f1681612b92565b9050919050565b60006020820190508181036000830152612f3681612bb5565b9050919050565b60006020820190508181036000830152612f5681612bd8565b9050919050565b60006020820190508181036000830152612f7681612bfb565b9050919050565b6000602082019050612f926000830184612c2d565b92915050565b6000612fa2612fb3565b9050612fae828261323e565b919050565b6000604051905090565b600067ffffffffffffffff821115612fd857612fd7613376565b5b612fe1826133a5565b9050602081019050919050565b600067ffffffffffffffff82111561300957613008613376565b5b613012826133a5565b9050602081019050919050565b6000819050602082019050919050565b600081519050919050565b600081519050919050565b600081519050919050565b6000602082019050919050565b600082825260208201905092915050565b600082825260208201905092915050565b600082825260208201905092915050565b600081905092915050565b60006130a6826131c0565b91506130b1836131c0565b9250827fffffffffffffffffffffffffffffffffffffffffffffffffffffffffffffffff038211156130e6576130e56132e9565b5b828201905092915050565b60006130fc826131c0565b9150613107836131c0565b92508261311757613116613318565b5b828204905092915050565b600061312d826131c0565b9150613138836131c0565b92508282101561314b5761314a6132e9565b5b828203905092915050565b6000613161826131a0565b9050919050565b60008115159050919050565b60007fffffffff0000000000000000000000000000000000000000000000000000000082169050919050565b600073ffffffffffffffffffffffffffffffffffffffff82169050919050565b6000819050919050565b82818337600083830152505050565b60005b838110156131f75780820151818401526020810190506131dc565b83811115613206576000848401525b50505050565b6000600282049050600182168061322457607f821691505b6020821081141561323857613237613347565b5b50919050565b613247826133a5565b810181811067ffffffffffffffff8211171561326657613265613376565b5b80604052505050565b600061327a826131c0565b91507fffffffffffffffffffffffffffffffffffffffffffffffffffffffffffffffff8214156132ad576132ac6132e9565b5b600182019050919050565b60006132c3826131c0565b91506132ce836131c0565b9250826132de576132dd613318565b5b828206905092915050565b7f4e487b7100000000000000000000000000000000000000000000000000000000600052601160045260246000fd5b7f4e487b7100000000000000000000000000000000000000000000000000000000600052601260045260246000fd5b7f4e487b7100000000000000000000000000000000000000000000000000000000600052602260045260246000fd5b7f4e487b7100000000000000000000000000000000000000000000000000000000600052604160045260246000fd5b6000601f19601f8301169050919050565b7f455243373231456e756d657261626c653a206f776e657220696e646578206f7560008201527f74206f6620626f756e6473000000000000000000000000000000000000000000602082015250565b7f4552433732313a207472616e7366657220746f206e6f6e20455243373231526560008201527f63656976657220696d706c656d656e7465720000000000000000000000000000602082015250565b7f4f776e61626c653a206e6577206f776e657220697320746865207a65726f206160008201527f6464726573730000000000000000000000000000000000000000000000000000602082015250565b7f4552433732313a207472616e736665722066726f6d20696e636f72726563742060008201527f6f776e6572000000000000000000000000000000000000000000000000000000602082015250565b7f4552433732313a20746f6b656e20616c7265616479206d696e74656400000000600082015250565b7f4552433732313a207472616e7366657220746f20746865207a65726f2061646460008201527f7265737300000000000000000000000000000000000000000000000000000000602082015250565b7f4552433732313a20617070726f766520746f2063616c6c657200000000000000600082015250565b7f4552433732313a2061646472657373207a65726f206973206e6f74206120766160008201527f6c6964206f776e65720000000000000000000000000000000000000000000000602082015250565b7f45524337323155524953746f726167653a2055524920736574206f66206e6f6e60008201527f6578697374656e7420746f6b656e000000000000000000000000000000000000602082015250565b7f4552433732313a20617070726f76652063616c6c6572206973206e6f7420746f60008201527f6b656e206f776e6572206e6f7220617070726f76656420666f7220616c6c0000602082015250565b7f4552433732313a206d696e7420746f20746865207a65726f2061646472657373600082015250565b7f4f776e61626c653a2063616c6c6572206973206e6f7420746865206f776e6572600082015250565b7f4552433732313a20696e76616c696420746f6b656e2049440000000000000000600082015250565b7f4552433732313a20617070726f76616c20746f2063757272656e74206f776e6560008201527f7200000000000000000000000000000000000000000000000000000000000000602082015250565b7f5472616e73666572206661696c65642e00000000000000000000000000000000600082015250565b7f455243373231456e756d657261626c653a20676c6f62616c20696e646578206f60008201527f7574206f6620626f756e64730000000000000000000000000000000000000000602082015250565b7f4552433732313a2063616c6c6572206973206e6f7420746f6b656e206f776e6560008201527f72206e6f7220617070726f766564000000000000000000000000000000000000602082015250565b61381a81613156565b811461382557600080fd5b50565b61383181613168565b811461383c57600080fd5b50565b61384881613174565b811461385357600080fd5b50565b61385f816131c0565b811461386a57600080fd5b5056fea264697066735822122008c4ced5ae175fe1da3b49bf46921fc89f7415ae08b43cafbe2c915865bbc35464736f6c63430008040033",
  "linkReferences": {},
  "deployedLinkReferences": {}
}